{"abi":[{"type":"constructor","inputs":[{"name":"_stablecoin","type":"address","internalType":"address"},{"name":"_aavePool","type":"address","internalType":"address"},{"name":"_aToken","type":"address","internalType":"address"},{"name":"_contributionAmount","type":"uint256","internalType":"uint256"},{"name":"_cycleDuration","type":"uint256","internalType":"uint256"},{"name":"_feeTreasury","type":"address","internalType":"address"},{"name":"_initialMembers","type":"address[]","internalType":"address[]"}],"stateMutability":"nonpayable"},{"type":"function","name":"GRACE_PERIOD","inputs":[],"outputs":[{"name":"","type":"uint256","internalType":"uint256"}],"stateMutability":"view"},{"type":"function","name":"aToken","inputs":[],"outputs":[{"name":"","type":"address","internalType":"contract IERC20"}],"stateMutability":"view"},{"type":"function","name":"aavePool","inputs":[],"outputs":[{"name":"","type":"address","internalType":"contract IPool"}],"stateMutability":"view"},{"type":"function","name":"checkUpkeep","inputs":[{"name":"","type":"bytes","internalType":"bytes"}],"outputs":[{"name":"upkeepNeeded","type":"bool","internalType":"bool"},{"name":"","type":"bytes","internalType":"bytes"}],"stateMutability":"view"},{"type":"function","name":"contributionAmount","inputs":[],"outputs":[{"name":"","type":"uint256","internalType":"uint256"}],"stateMutability":"view"},{"type":"function","name":"currentRecipientIndex","inputs":[],"outputs":[{"name":"","type":"uint256","internalType":"uint256"}],"stateMutability":"view"},{"type":"function","name":"cycleDuration","inputs":[],"outputs":[{"name":"","type":"uint256","internalType":"uint256"}],"stateMutability":"view"},{"type":"function","name":"deposit","inputs":[],"outputs":[],"stateMutability":"nonpayable"},{"type":"function","name":"feeTreasury","inputs":[],"outputs":[{"name":"","type":"address","internalType":"address"}],"stateMutability":"view"},{"type":"function","name":"joinGroup","inputs":[],"outputs":[],"stateMutability":"nonpayable"},{"type":"function","name":"lastPayoutTimestamp","inputs":[],"outputs":[{"name":"","type":"uint256","internalType":"uint256"}],"stateMutability":"view"},{"type":"function","name":"liquidateGroup","inputs":[],"outputs":[],"stateMutability":"nonpayable"},{"type":"function","name":"maxMembers","inputs":[],"outputs":[{"name":"","type":"uint256","internalType":"uint256"}],"stateMutability":"view"},{"type":"function","name":"memberIndices","inputs":[{"name":"","type":"address","internalType":"address"}],"outputs":[{"name":"","type":"uint256","internalType":"uint256"}],"stateMutability":"view"},{"type":"function","name":"members","inputs":[{"name":"","type":"uint256","internalType":"uint256"}],"outputs":[{"name":"account","type":"address","internalType":"address"},{"name":"hasContributedThisCycle","type":"bool","internalType":"bool"},{"name":"totalContributed","type":"uint256","internalType":"uint256"}],"stateMutability":"view"},{"type":"function","name":"performUpkeep","inputs":[{"name":"","type":"bytes","internalType":"bytes"}],"outputs":[],"stateMutability":"nonpayable"},{"type":"function","name":"platformFeePercentage","inputs":[],"outputs":[{"name":"","type":"uint256","internalType":"uint256"}],"stateMutability":"view"},{"type":"function","name":"stablecoin","inputs":[],"outputs":[{"name":"","type":"address","internalType":"contract IERC20"}],"stateMutability":"view"},{"type":"event","name":"DepositMade","inputs":[{"name":"member","type":"address","indexed":true,"internalType":"address"},{"name":"amount","type":"uint256","indexed":false,"internalType":"uint256"}],"anonymous":false},{"type":"event","name":"GroupLiquidated","inputs":[{"name":"totalDistributed","type":"uint256","indexed":false,"internalType":"uint256"}],"anonymous":false},{"type":"event","name":"MemberJoined","inputs":[{"name":"member","type":"address","indexed":true,"internalType":"address"}],"anonymous":false},{"type":"event","name":"PayoutDistributed","inputs":[{"name":"recipient","type":"address","indexed":true,"internalType":"address"},{"name":"payoutAmount","type":"uint256","indexed":false,"internalType":"uint256"},{"name":"interestShared","type":"uint256","indexed":false,"internalType":"uint256"}],"anonymous":false},{"type":"error","name":"ReentrancyGuardReentrantCall","inputs":[]},{"type":"error","name":"SafeERC20FailedOperation","inputs":[{"name":"token","type":"address","internalType":"address"}]}],"bytecode":{"object":"0x608060405260646009556004600a55348015610019575f5ffd5b50604051612c64380380612c64833981810160405281019061003b9190610507565b600161005961004e6102e760201b60201c565b61031060201b60201c565b5f0181905550865f5f6101000a81548173ffffffffffffffffffffffffffffffffffffffff021916908373ffffffffffffffffffffffffffffffffffffffff1602179055508560015f6101000a81548173ffffffffffffffffffffffffffffffffffffffff021916908373ffffffffffffffffffffffffffffffffffffffff1602179055508460025f6101000a81548173ffffffffffffffffffffffffffffffffffffffff021916908373ffffffffffffffffffffffffffffffffffffffff160217905550836005819055508260068190555081600b5f6101000a81548173ffffffffffffffffffffffffffffffffffffffff021916908373ffffffffffffffffffffffffffffffffffffffff160217905550426007819055505f5f90505b81518110156102da57600360405180606001604052808484815181106101a1576101a06105c0565b5b602002602001015173ffffffffffffffffffffffffffffffffffffffff1681526020015f151581526020015f815250908060018154018082558091505060019003905f5260205f2090600202015f909190919091505f820151815f015f6101000a81548173ffffffffffffffffffffffffffffffffffffffff021916908373ffffffffffffffffffffffffffffffffffffffff1602179055506020820151815f0160146101000a81548160ff021916908315150217905550604082015181600101555050600181610272919061061a565b60045f848481518110610288576102876105c0565b5b602002602001015173ffffffffffffffffffffffffffffffffffffffff1673ffffffffffffffffffffffffffffffffffffffff1681526020019081526020015f20819055508080600101915050610178565b505050505050505061064d565b5f7f9b779b17422d0df92223018b32b4d1fa46e071723d6817e2486d003becc55f005f1b905090565b5f819050919050565b5f604051905090565b5f5ffd5b5f5ffd5b5f73ffffffffffffffffffffffffffffffffffffffff82169050919050565b5f6103538261032a565b9050919050565b61036381610349565b811461036d575f5ffd5b50565b5f8151905061037e8161035a565b92915050565b5f819050919050565b61039681610384565b81146103a0575f5ffd5b50565b5f815190506103b18161038d565b92915050565b5f5ffd5b5f601f19601f8301169050919050565b7f4e487b71000000000000000000000000000000000000000000000000000000005f52604160045260245ffd5b610401826103bb565b810181811067ffffffffffffffff821117156104205761041f6103cb565b5b80604052505050565b5f610432610319565b905061043e82826103f8565b919050565b5f67ffffffffffffffff82111561045d5761045c6103cb565b5b602082029050602081019050919050565b5f5ffd5b5f61048461047f84610443565b610429565b905080838252602082019050602084028301858111156104a7576104a661046e565b5b835b818110156104d057806104bc8882610370565b8452602084019350506020810190506104a9565b5050509392505050565b5f82601f8301126104ee576104ed6103b7565b5b81516104fe848260208601610472565b91505092915050565b5f5f5f5f5f5f5f60e0888a03121561052257610521610322565b5b5f61052f8a828b01610370565b97505060206105408a828b01610370565b96505060406105518a828b01610370565b95505060606105628a828b016103a3565b94505060806105738a828b016103a3565b93505060a06105848a828b01610370565b92505060c088015167ffffffffffffffff8111156105a5576105a4610326565b5b6105b18a828b016104da565b91505092959891949750929550565b7f4e487b71000000000000000000000000000000000000000000000000000000005f52603260045260245ffd5b7f4e487b71000000000000000000000000000000000000000000000000000000005f52601160045260245ffd5b5f61062482610384565b915061062f83610384565b9250828201905080821115610647576106466105ed565b5b92915050565b61260a8061065a5f395ff3fe608060405234801561000f575f5ffd5b5060043610610114575f3560e01c80639ac79e0a116100a0578063c1a287e21161006f578063c1a287e2146102ad578063c7ffafbb146102cb578063cdd78cfc146102e9578063d0e30db014610307578063e9cbd8221461031157610114565b80639ac79e0a14610249578063a03e4bc314610253578063a0c1f15e14610271578063bf4386a01461028f57610114565b80635fa0b65f116100e75780635fa0b65f146101a257806360dc2340146101c057806363f700cb146101de5780636e04ff0d1461020e5780637507e8331461023f57610114565b80632e94a9dc146101185780634585e33b146101365780635bec4cb4146101525780635daf08ca14610170575b5f5ffd5b61012061032f565b60405161012d9190611b05565b60405180910390f35b610150600480360381019061014b9190611b87565b610335565b005b61015a6103ea565b6040516101679190611b05565b60405180910390f35b61018a60048036038101906101859190611bfc565b6103f0565b60405161019993929190611c80565b60405180910390f35b6101aa610450565b6040516101b79190611b05565b60405180910390f35b6101c8610456565b6040516101d59190611cb5565b60405180910390f35b6101f860048036038101906101f39190611cf8565b61047b565b6040516102059190611b05565b60405180910390f35b61022860048036038101906102239190611b87565b610490565b604051610236929190611d93565b60405180910390f35b6102476104d3565b005b6102516109dd565b005b61025b610bfb565b6040516102689190611e1c565b60405180910390f35b610279610c20565b6040516102869190611e55565b60405180910390f35b610297610c45565b6040516102a49190611b05565b60405180910390f35b6102b5610c4b565b6040516102c29190611b05565b60405180910390f35b6102d3610c52565b6040516102e09190611b05565b60405180910390f35b6102f1610c58565b6040516102fe9190611b05565b60405180910390f35b61030f610c5e565b005b610319610f1f565b6040516103269190611e55565b60405180910390f35b60085481565b61033d610f43565b60065460075461034d9190611e9b565b42101561038f576040517f08c379a000000000000000000000000000000000000000000000000000000000815260040161038690611f28565b60405180910390fd5b610397610f65565b6103d6576040517f08c379a00000000000000000000000000000000000000000000000000000000081526004016103cd90611f90565b60405180910390fd5b6103de610fcb565b6103e6611683565b5050565b60065481565b600381815481106103ff575f80fd5b905f5260205f2090600202015f91509050805f015f9054906101000a900473ffffffffffffffffffffffffffffffffffffffff1690805f0160149054906101000a900460ff16908060010154905083565b60055481565b600b5f9054906101000a900473ffffffffffffffffffffffffffffffffffffffff1681565b6004602052805f5260405f205f915090505481565b5f60606006546007546104a39190611e9b565b42101580156104b657506104b5610f65565b5b91508160405180602001604052805f815250915091509250929050565b6104db610f43565b6203f4806006546007546104ef9190611e9b565b6104f99190611e9b565b421161053a576040517f08c379a000000000000000000000000000000000000000000000000000000000815260040161053190611ff8565b60405180910390fd5b610542610f65565b15610582576040517f08c379a000000000000000000000000000000000000000000000000000000000815260040161057990612086565b60405180910390fd5b5f60025f9054906101000a900473ffffffffffffffffffffffffffffffffffffffff1673ffffffffffffffffffffffffffffffffffffffff166370a08231306040518263ffffffff1660e01b81526004016105dd9190611cb5565b602060405180830381865afa1580156105f8573d5f5f3e3d5ffd5b505050506040513d601f19601f8201168201806040525081019061061c91906120b8565b90505f8111156106e65760015f9054906101000a900473ffffffffffffffffffffffffffffffffffffffff1673ffffffffffffffffffffffffffffffffffffffff166369328dec5f5f9054906101000a900473ffffffffffffffffffffffffffffffffffffffff1683306040518463ffffffff1660e01b81526004016106a4939291906120e3565b6020604051808303815f875af11580156106c0573d5f5f3e3d5ffd5b505050506040513d601f19601f820116820180604052508101906106e491906120b8565b505b5f5f5f9054906101000a900473ffffffffffffffffffffffffffffffffffffffff1673ffffffffffffffffffffffffffffffffffffffff166370a08231306040518263ffffffff1660e01b81526004016107409190611cb5565b602060405180830381865afa15801561075b573d5f5f3e3d5ffd5b505050506040513d601f19601f8201168201806040525081019061077f91906120b8565b90505f81116107c3576040517f08c379a00000000000000000000000000000000000000000000000000000000081526004016107ba90612162565b60405180910390fd5b5f5f90505f5f90505b60038054905081101561082a57600381815481106107ed576107ec612180565b5b905f5260205f2090600202015f0160149054906101000a900460ff161561081d578180610819906121ad565b9250505b80806001019150506107cc565b505f811161086d576040517f08c379a00000000000000000000000000000000000000000000000000000000081526004016108649061223e565b60405180910390fd5b5f818361087a9190612289565b90505f5f90505b60038054905081101561099757600381815481106108a2576108a1612180565b5b905f5260205f2090600202015f0160149054906101000a900460ff161561098a575f600382815481106108d8576108d7612180565b5b905f5260205f2090600202015f0160146101000a81548160ff0219169083151502179055506109896003828154811061091457610913612180565b5b905f5260205f2090600202015f015f9054906101000a900473ffffffffffffffffffffffffffffffffffffffff16835f5f9054906101000a900473ffffffffffffffffffffffffffffffffffffffff1673ffffffffffffffffffffffffffffffffffffffff1661169d9092919063ffffffff16565b5b8080600101915050610881565b507f2f29ffdcb1b7aa151ac87fa1d401949f4d526f93b6d743d9a0edf33e89a2d1bc836040516109c79190611b05565b60405180910390a1505050506109db611683565b565b5f60045f3373ffffffffffffffffffffffffffffffffffffffff1673ffffffffffffffffffffffffffffffffffffffff1681526020019081526020015f205414610a5c576040517f08c379a0000000000000000000000000000000000000000000000000000000008152600401610a5390612303565b60405180910390fd5b600a5460038054905010610aa5576040517f08c379a0000000000000000000000000000000000000000000000000000000008152600401610a9c9061236b565b60405180910390fd5b600360405180606001604052803373ffffffffffffffffffffffffffffffffffffffff1681526020015f151581526020015f815250908060018154018082558091505060019003905f5260205f2090600202015f909190919091505f820151815f015f6101000a81548173ffffffffffffffffffffffffffffffffffffffff021916908373ffffffffffffffffffffffffffffffffffffffff1602179055506020820151815f0160146101000a81548160ff02191690831515021790555060408201518160010155505060038054905060045f3373ffffffffffffffffffffffffffffffffffffffff1673ffffffffffffffffffffffffffffffffffffffff1681526020019081526020015f20819055503373ffffffffffffffffffffffffffffffffffffffff167f0abf3b3f643594d958297062a019458e27d7766629590ac621aa1000fa1298ab60405160405180910390a2565b60015f9054906101000a900473ffffffffffffffffffffffffffffffffffffffff1681565b60025f9054906101000a900473ffffffffffffffffffffffffffffffffffffffff1681565b600a5481565b6203f48081565b60075481565b60095481565b610c66610f43565b5f610c70336116f0565b905060038181548110610c8657610c85612180565b5b905f5260205f2090600202015f0160149054906101000a900460ff1615610ce2576040517f08c379a0000000000000000000000000000000000000000000000000000000008152600401610cd9906123d3565b60405180910390fd5b610d3133306005545f5f9054906101000a900473ffffffffffffffffffffffffffffffffffffffff1673ffffffffffffffffffffffffffffffffffffffff16611789909392919063ffffffff16565b600160038281548110610d4757610d46612180565b5b905f5260205f2090600202015f0160146101000a81548160ff02191690831515021790555060055460038281548110610d8357610d82612180565b5b905f5260205f2090600202016001015f828254610da09190611e9b565b92505081905550610e1560015f9054906101000a900473ffffffffffffffffffffffffffffffffffffffff166005545f5f9054906101000a900473ffffffffffffffffffffffffffffffffffffffff1673ffffffffffffffffffffffffffffffffffffffff166117de9092919063ffffffff16565b60015f9054906101000a900473ffffffffffffffffffffffffffffffffffffffff1673ffffffffffffffffffffffffffffffffffffffff1663617ba0375f5f9054906101000a900473ffffffffffffffffffffffffffffffffffffffff16600554305f6040518563ffffffff1660e01b8152600401610e979493929190612437565b5f604051808303815f87803b158015610eae575f5ffd5b505af1158015610ec0573d5f5f3e3d5ffd5b505050503373ffffffffffffffffffffffffffffffffffffffff167fd15c9547ea5c06670c0010ce19bc32d54682a4b3801ece7f3ab0c3f17106b4bb600554604051610f0c9190611b05565b60405180910390a250610f1d611683565b565b5f5f9054906101000a900473ffffffffffffffffffffffffffffffffffffffff1681565b610f4b611877565b6002610f5d610f586118b8565b6118e1565b5f0181905550565b5f5f5f90505b600380549050811015610fc25760038181548110610f8c57610f8b612180565b5b905f5260205f2090600202015f0160149054906101000a900460ff16610fb5575f915050610fc8565b8080600101915050610f6b565b50600190505b90565b5f600380549050600554610fdf919061247a565b90505f60025f9054906101000a900473ffffffffffffffffffffffffffffffffffffffff1673ffffffffffffffffffffffffffffffffffffffff166370a08231306040518263ffffffff1660e01b815260040161103c9190611cb5565b602060405180830381865afa158015611057573d5f5f3e3d5ffd5b505050506040513d601f19601f8201168201806040525081019061107b91906120b8565b90505f8111156111455760015f9054906101000a900473ffffffffffffffffffffffffffffffffffffffff1673ffffffffffffffffffffffffffffffffffffffff166369328dec5f5f9054906101000a900473ffffffffffffffffffffffffffffffffffffffff1683306040518463ffffffff1660e01b8152600401611103939291906120e3565b6020604051808303815f875af115801561111f573d5f5f3e3d5ffd5b505050506040513d601f19601f8201168201806040525081019061114391906120b8565b505b5f5f5f9054906101000a900473ffffffffffffffffffffffffffffffffffffffff1673ffffffffffffffffffffffffffffffffffffffff166370a08231306040518263ffffffff1660e01b815260040161119f9190611cb5565b602060405180830381865afa1580156111ba573d5f5f3e3d5ffd5b505050506040513d601f19601f820116820180604052508101906111de91906120b8565b90505f8382116111ee575f6111fb565b83826111fa91906124bb565b5b90505f60036008548154811061121457611213612180565b5b905f5260205f2090600202015f015f9054906101000a900473ffffffffffffffffffffffffffffffffffffffff1690505f6005548661125391906124bb565b90505f61271060095483611267919061247a565b6112719190612289565b90505f818361128091906124bb565b90505f8211156112f7576112f6600b5f9054906101000a900473ffffffffffffffffffffffffffffffffffffffff16835f5f9054906101000a900473ffffffffffffffffffffffffffffffffffffffff1673ffffffffffffffffffffffffffffffffffffffff1661169d9092919063ffffffff16565b5b61134284825f5f9054906101000a900473ffffffffffffffffffffffffffffffffffffffff1673ffffffffffffffffffffffffffffffffffffffff1661169d9092919063ffffffff16565b5f85111561140c575f6003805490508661135c9190612289565b90505f5f90505b600380549050811015611409576113fc6003828154811061138757611386612180565b5b905f5260205f2090600202015f015f9054906101000a900473ffffffffffffffffffffffffffffffffffffffff16835f5f9054906101000a900473ffffffffffffffffffffffffffffffffffffffff1673ffffffffffffffffffffffffffffffffffffffff1661169d9092919063ffffffff16565b8080600101915050611363565b50505b61147a60015f9054906101000a900473ffffffffffffffffffffffffffffffffffffffff166005545f5f9054906101000a900473ffffffffffffffffffffffffffffffffffffffff1673ffffffffffffffffffffffffffffffffffffffff166117de9092919063ffffffff16565b60015f9054906101000a900473ffffffffffffffffffffffffffffffffffffffff1673ffffffffffffffffffffffffffffffffffffffff1663617ba0375f5f9054906101000a900473ffffffffffffffffffffffffffffffffffffffff16600554305f6040518563ffffffff1660e01b81526004016114fc9493929190612437565b5f604051808303815f87803b158015611513575f5ffd5b505af1158015611525573d5f5f3e3d5ffd5b50505050426007819055505f5f90505b600380549050811015611589575f6003828154811061155757611556612180565b5b905f5260205f2090600202015f0160146101000a81548160ff0219169083151502179055508080600101915050611535565b5060016003600854815481106115a2576115a1612180565b5b905f5260205f2090600202015f0160146101000a81548160ff0219169083151502179055506005546003600854815481106115e0576115df612180565b5b905f5260205f2090600202016001015f8282546115fd9190611e9b565b9250508190555060038054905060016008546116199190611e9b565b61162391906124ee565b6008819055508373ffffffffffffffffffffffffffffffffffffffff167f509dbfab2c074202d576ce93478af7019ee2a29bdd433154579904b0876a0840828760405161167192919061251e565b60405180910390a25050505050505050565b60016116956116906118b8565b6118e1565b5f0181905550565b6116aa83838360016118ea565b6116eb57826040517f5274afe70000000000000000000000000000000000000000000000000000000081526004016116e29190611cb5565b60405180910390fd5b505050565b5f5f60045f8473ffffffffffffffffffffffffffffffffffffffff1673ffffffffffffffffffffffffffffffffffffffff1681526020019081526020015f205490505f8111611774576040517f08c379a000000000000000000000000000000000000000000000000000000000815260040161176b9061258f565b60405180910390fd5b60018161178191906124bb565b915050919050565b61179784848484600161194c565b6117d857836040517f5274afe70000000000000000000000000000000000000000000000000000000081526004016117cf9190611cb5565b60405180910390fd5b50505050565b5f8373ffffffffffffffffffffffffffffffffffffffff1663dd62ed3e30856040518363ffffffff1660e01b815260040161181a9291906125ad565b602060405180830381865afa158015611835573d5f5f3e3d5ffd5b505050506040513d601f19601f8201168201806040525081019061185991906120b8565b90506118718484848461186c9190611e9b565b6119bd565b50505050565b61187f611a6f565b156118b6576040517f3ee5aeb500000000000000000000000000000000000000000000000000000000815260040160405180910390fd5b565b5f7f9b779b17422d0df92223018b32b4d1fa46e071723d6817e2486d003becc55f005f1b905090565b5f819050919050565b5f5f63a9059cbb60e01b9050604051815f525f1960601c86166004528460245260205f60445f5f8b5af1925060015f5114831661193e578383151615611932573d5f823e3d81fd5b5f873b113d1516831692505b806040525050949350505050565b5f5f6323b872dd60e01b9050604051815f525f1960601c87166004525f1960601c86166024528460445260205f60645f5f8c5af1925060015f511483166119aa57838315161561199e573d5f823e3d81fd5b5f883b113d1516831692505b806040525f606052505095945050505050565b6119c98383835f611a8b565b611a6a576119da83835f6001611a8b565b611a1b57826040517f5274afe7000000000000000000000000000000000000000000000000000000008152600401611a129190611cb5565b60405180910390fd5b611a288383836001611a8b565b611a6957826040517f5274afe7000000000000000000000000000000000000000000000000000000008152600401611a609190611cb5565b60405180910390fd5b5b505050565b5f6002611a82611a7d6118b8565b6118e1565b5f015414905090565b5f5f63095ea7b360e01b9050604051815f525f1960601c86166004528460245260205f60445f5f8b5af1925060015f51148316611adf578383151615611ad3573d5f823e3d81fd5b5f873b113d1516831692505b806040525050949350505050565b5f819050919050565b611aff81611aed565b82525050565b5f602082019050611b185f830184611af6565b92915050565b5f5ffd5b5f5ffd5b5f5ffd5b5f5ffd5b5f5ffd5b5f5f83601f840112611b4757611b46611b26565b5b8235905067ffffffffffffffff811115611b6457611b63611b2a565b5b602083019150836001820283011115611b8057611b7f611b2e565b5b9250929050565b5f5f60208385031215611b9d57611b9c611b1e565b5b5f83013567ffffffffffffffff811115611bba57611bb9611b22565b5b611bc685828601611b32565b92509250509250929050565b611bdb81611aed565b8114611be5575f5ffd5b50565b5f81359050611bf681611bd2565b92915050565b5f60208284031215611c1157611c10611b1e565b5b5f611c1e84828501611be8565b91505092915050565b5f73ffffffffffffffffffffffffffffffffffffffff82169050919050565b5f611c5082611c27565b9050919050565b611c6081611c46565b82525050565b5f8115159050919050565b611c7a81611c66565b82525050565b5f606082019050611c935f830186611c57565b611ca06020830185611c71565b611cad6040830184611af6565b949350505050565b5f602082019050611cc85f830184611c57565b92915050565b611cd781611c46565b8114611ce1575f5ffd5b50565b5f81359050611cf281611cce565b92915050565b5f60208284031215611d0d57611d0c611b1e565b5b5f611d1a84828501611ce4565b91505092915050565b5f81519050919050565b5f82825260208201905092915050565b8281835e5f83830152505050565b5f601f19601f8301169050919050565b5f611d6582611d23565b611d6f8185611d2d565b9350611d7f818560208601611d3d565b611d8881611d4b565b840191505092915050565b5f604082019050611da65f830185611c71565b8181036020830152611db88184611d5b565b90509392505050565b5f819050919050565b5f611de4611ddf611dda84611c27565b611dc1565b611c27565b9050919050565b5f611df582611dca565b9050919050565b5f611e0682611deb565b9050919050565b611e1681611dfc565b82525050565b5f602082019050611e2f5f830184611e0d565b92915050565b5f611e3f82611deb565b9050919050565b611e4f81611e35565b82525050565b5f602082019050611e685f830184611e46565b92915050565b7f4e487b71000000000000000000000000000000000000000000000000000000005f52601160045260245ffd5b5f611ea582611aed565b9150611eb083611aed565b9250828201905080821115611ec857611ec7611e6e565b5b92915050565b5f82825260208201905092915050565b7f4379636c65206475726174696f6e206e6f74206d6574000000000000000000005f82015250565b5f611f12601683611ece565b9150611f1d82611ede565b602082019050919050565b5f6020820190508181035f830152611f3f81611f06565b9050919050565b7f4e6f7420616c6c206d656d62657273206861766520636f6e74726962757465645f82015250565b5f611f7a602083611ece565b9150611f8582611f46565b602082019050919050565b5f6020820190508181035f830152611fa781611f6e565b9050919050565b7f477261636520706572696f64206e6f74206f76657200000000000000000000005f82015250565b5f611fe2601583611ece565b9150611fed82611fae565b602082019050919050565b5f6020820190508181035f83015261200f81611fd6565b9050919050565b7f416c6c206d656d6265727320636f6e74726962757465642c206175746f6d61745f8201527f696f6e2073686f756c642072756e000000000000000000000000000000000000602082015250565b5f612070602e83611ece565b915061207b82612016565b604082019050919050565b5f6020820190508181035f83015261209d81612064565b9050919050565b5f815190506120b281611bd2565b92915050565b5f602082840312156120cd576120cc611b1e565b5b5f6120da848285016120a4565b91505092915050565b5f6060820190506120f65f830186611c57565b6121036020830185611af6565b6121106040830184611c57565b949350505050565b7f4e6f2066756e647320746f206c697175696461746500000000000000000000005f82015250565b5f61214c601583611ece565b915061215782612118565b602082019050919050565b5f6020820190508181035f83015261217981612140565b9050919050565b7f4e487b71000000000000000000000000000000000000000000000000000000005f52603260045260245ffd5b5f6121b782611aed565b91507fffffffffffffffffffffffffffffffffffffffffffffffffffffffffffffffff82036121e9576121e8611e6e565b5b600182019050919050565b7f4e6f20636f6e747269627574696f6e7320746f207265736375650000000000005f82015250565b5f612228601a83611ece565b9150612233826121f4565b602082019050919050565b5f6020820190508181035f8301526122558161221c565b9050919050565b7f4e487b71000000000000000000000000000000000000000000000000000000005f52601260045260245ffd5b5f61229382611aed565b915061229e83611aed565b9250826122ae576122ad61225c565b5b828204905092915050565b7f416c72656164792061206d656d626572000000000000000000000000000000005f82015250565b5f6122ed601083611ece565b91506122f8826122b9565b602082019050919050565b5f6020820190508181035f83015261231a816122e1565b9050919050565b7f47726f75702069732066756c6c000000000000000000000000000000000000005f82015250565b5f612355600d83611ece565b915061236082612321565b602082019050919050565b5f6020820190508181035f83015261238281612349565b9050919050565b7f416c726561647920636f6e74726962757465642074686973206379636c6500005f82015250565b5f6123bd601e83611ece565b91506123c882612389565b602082019050919050565b5f6020820190508181035f8301526123ea816123b1565b9050919050565b5f819050919050565b5f61ffff82169050919050565b5f61242161241c612417846123f1565b611dc1565b6123fa565b9050919050565b61243181612407565b82525050565b5f60808201905061244a5f830187611c57565b6124576020830186611af6565b6124646040830185611c57565b6124716060830184612428565b95945050505050565b5f61248482611aed565b915061248f83611aed565b925082820261249d81611aed565b915082820484148315176124b4576124b3611e6e565b5b5092915050565b5f6124c582611aed565b91506124d083611aed565b92508282039050818111156124e8576124e7611e6e565b5b92915050565b5f6124f882611aed565b915061250383611aed565b9250826125135761251261225c565b5b828206905092915050565b5f6040820190506125315f830185611af6565b61253e6020830184611af6565b9392505050565b7f4e6f7420612067726f7570206d656d62657200000000000000000000000000005f82015250565b5f612579601283611ece565b915061258482612545565b602082019050919050565b5f6020820190508181035f8301526125a68161256d565b9050919050565b5f6040820190506125c05f830185611c57565b6125cd6020830184611c57565b939250505056fea26469706673582212208fe85f65bb84b4cf193568ed354f800d5f7057ba93052c635dfd384abf5a81ee64736f6c63430008210033","linkReferences":{}},"methodIdentifiers":{"GRACE_PERIOD()":"c1a287e2","aToken()":"a0c1f15e","aavePool()":"a03e4bc3","checkUpkeep(bytes)":"6e04ff0d","contributionAmount()":"5fa0b65f","currentRecipientIndex()":"2e94a9dc","cycleDuration()":"5bec4cb4","deposit()":"d0e30db0","feeTreasury()":"60dc2340","joinGroup()":"9ac79e0a","lastPayoutTimestamp()":"c7ffafbb","liquidateGroup()":"7507e833","maxMembers()":"bf4386a0","memberIndices(address)":"63f700cb","members(uint256)":"5daf08ca","performUpkeep(bytes)":"4585e33b","platformFeePercentage()":"cdd78cfc","stablecoin()":"e9cbd822"},"id":28}